{
  "contractName": "buyEstate",
  "abi": [
    {
      "constant": false,
      "inputs": [
        {
          "name": "estate_id",
          "type": "uint256"
        },
        {
          "name": "seller_name",
          "type": "bytes32"
        },
        {
          "name": "estate_name",
          "type": "bytes32"
        },
        {
          "name": "estate_location",
          "type": "bytes32"
        },
        {
          "name": "estate_sellprice",
          "type": "uint256"
        }
      ],
      "name": "setSeller",
      "outputs": [],
      "payable": false,
      "stateMutability": "nonpayable",
      "type": "function"
    },
    {
      "constant": false,
      "inputs": [
        {
          "name": "estate_id",
          "type": "uint256"
        },
        {
          "name": "customer_iphone",
          "type": "uint256"
        },
        {
          "name": "customer_name",
          "type": "bytes32"
        },
        {
          "name": "customer_address",
          "type": "bytes32"
        }
      ],
      "name": "setCustomer",
      "outputs": [],
      "payable": false,
      "stateMutability": "nonpayable",
      "type": "function"
    },
    {
      "constant": true,
      "inputs": [
        {
          "name": "",
          "type": "uint256"
        }
      ],
      "name": "estateToOwner",
      "outputs": [
        {
          "name": "",
          "type": "address"
        }
      ],
      "payable": false,
      "stateMutability": "view",
      "type": "function"
    },
    {
      "constant": true,
      "inputs": [
        {
          "name": "estate_id",
          "type": "uint256"
        }
      ],
      "name": "getSeller",
      "outputs": [
        {
          "name": "",
          "type": "bytes32"
        },
        {
          "name": "",
          "type": "bytes32"
        },
        {
          "name": "",
          "type": "bytes32"
        },
        {
          "name": "",
          "type": "uint256"
        }
      ],
      "payable": false,
      "stateMutability": "view",
      "type": "function"
    },
    {
      "constant": true,
      "inputs": [
        {
          "name": "estate_id",
          "type": "uint256"
        }
      ],
      "name": "getSupplier",
      "outputs": [
        {
          "name": "",
          "type": "uint256"
        },
        {
          "name": "",
          "type": "bytes32"
        },
        {
          "name": "",
          "type": "bytes32"
        }
      ],
      "payable": false,
      "stateMutability": "view",
      "type": "function"
    },
    {
      "constant": false,
      "inputs": [
        {
          "name": "estate_id",
          "type": "uint256"
        },
        {
          "name": "raw_material_id",
          "type": "uint256"
        },
        {
          "name": "suppiler_name",
          "type": "bytes32"
        },
        {
          "name": "raw_material_name",
          "type": "bytes32"
        }
      ],
      "name": "setSupplier",
      "outputs": [],
      "payable": false,
      "stateMutability": "nonpayable",
      "type": "function"
    },
    {
      "constant": true,
      "inputs": [
        {
          "name": "estate_id",
          "type": "uint256"
        }
      ],
      "name": "getCustomer",
      "outputs": [
        {
          "name": "",
          "type": "uint256"
        },
        {
          "name": "",
          "type": "bytes32"
        },
        {
          "name": "",
          "type": "bytes32"
        }
      ],
      "payable": false,
      "stateMutability": "view",
      "type": "function"
    },
    {
      "anonymous": false,
      "inputs": [
        {
          "indexed": true,
          "name": "_from",
          "type": "address"
        },
        {
          "indexed": true,
          "name": "_to",
          "type": "address"
        },
        {
          "indexed": false,
          "name": "_value",
          "type": "uint256"
        }
      ],
      "name": "Transfer",
      "type": "event"
    },
    {
      "constant": false,
      "inputs": [
        {
          "name": "addr",
          "type": "address"
        }
      ],
      "name": "getbalance",
      "outputs": [
        {
          "name": "",
          "type": "uint256"
        }
      ],
      "payable": false,
      "stateMutability": "nonpayable",
      "type": "function"
    },
    {
      "constant": false,
      "inputs": [
        {
          "name": "estate_id",
          "type": "uint256"
        }
      ],
      "name": "transferOwnership",
      "outputs": [],
      "payable": false,
      "stateMutability": "nonpayable",
      "type": "function"
    },
    {
      "constant": true,
      "inputs": [
        {
          "name": "customer_address",
          "type": "address"
        }
      ],
      "name": "showCustomerEstateId",
      "outputs": [
        {
          "name": "",
          "type": "uint256[]"
        }
      ],
      "payable": false,
      "stateMutability": "view",
      "type": "function"
    },
    {
      "constant": true,
      "inputs": [
        {
          "name": "customer_address",
          "type": "address"
        }
      ],
      "name": "showCustomerEstatecount",
      "outputs": [
        {
          "name": "",
          "type": "uint256"
        }
      ],
      "payable": false,
      "stateMutability": "view",
      "type": "function"
    },
    {
      "constant": false,
      "inputs": [
        {
          "name": "receiver",
          "type": "address"
        },
        {
          "name": "price",
          "type": "uint256"
        }
      ],
      "name": "payMoney",
      "outputs": [
        {
          "name": "",
          "type": "bool"
        }
      ],
      "payable": false,
      "stateMutability": "nonpayable",
      "type": "function"
    }
  ],
  "bytecode": "0x608060405234801561001057600080fd5b50610adc806100206000396000f3006080604052600436106100ba576000357c0100000000000000000000000000000000000000000000000000000000900463ffffffff1680632fa18ff8146100bf5780633da1768714610120578063463506e3146101775780634e9ee48c146101dc57806363d40a591461022f578063681161771461029c578063a5673806146102f3578063d23e84891461038b578063d6a9de51146103b8578063e0620e1d14610426578063e638ea0114610485578063eb876f27146104d8575b600080fd5b3480156100cb57600080fd5b5061011e6004803603810190808035906020019092919080356000191690602001909291908035600019169060200190929190803560001916906020019092919080359060200190929190505050610537565b005b34801561012c57600080fd5b50610161600480360381019080803573ffffffffffffffffffffffffffffffffffffffff169060200190929190505050610585565b6040518082815260200191505060405180910390f35b34801561018357600080fd5b506101c2600480360381019080803573ffffffffffffffffffffffffffffffffffffffff169060200190929190803590602001909291905050506105ce565b604051808215151515815260200191505060405180910390f35b3480156101e857600080fd5b5061022d6004803603810190808035906020019092919080359060200190929190803560001916906020019092919080356000191690602001909291905050506106c5565b005b34801561023b57600080fd5b5061025a60048036038101908080359060200190929190505050610705565b604051808273ffffffffffffffffffffffffffffffffffffffff1673ffffffffffffffffffffffffffffffffffffffff16815260200191505060405180910390f35b3480156102a857600080fd5b506102dd600480360381019080803573ffffffffffffffffffffffffffffffffffffffff169060200190929190505050610738565b6040518082815260200191505060405180910390f35b3480156102ff57600080fd5b50610334600480360381019080803573ffffffffffffffffffffffffffffffffffffffff169060200190929190505050610781565b6040518080602001828103825283818151815260200191508051906020019060200280838360005b8381101561037757808201518184015260208101905061035c565b505050509050019250505060405180910390f35b34801561039757600080fd5b506103b6600480360381019080803590602001909291905050506108b0565b005b3480156103c457600080fd5b506103e36004803603810190808035906020019092919050505061099b565b6040518085600019166000191681526020018460001916600019168152602001836000191660001916815260200182815260200194505050505060405180910390f35b34801561043257600080fd5b50610451600480360381019080803590602001909291905050506109db565b6040518084815260200183600019166000191681526020018260001916600019168152602001935050505060405180910390f35b34801561049157600080fd5b506104d6600480360381019080803590602001909291908035906020019092919080356000191690602001909291908035600019169060200190929190505050610a12565b005b3480156104e457600080fd5b5061050360048036038101908080359060200190929190505050610a5b565b6040518084815260200183600019166000191681526020018260001916600019168152602001935050505060405180910390f35b60008060008781526020019081526020016000209050848160040181600019169055508381600501816000191690555082816006018160001916905550818160070181905550505050505050565b6000600260008373ffffffffffffffffffffffffffffffffffffffff1673ffffffffffffffffffffffffffffffffffffffff168152602001908152602001600020549050919050565b600081600360003373ffffffffffffffffffffffffffffffffffffffff1673ffffffffffffffffffffffffffffffffffffffff16815260200190815260200160002054101561062057600090506106bf565b81600360003373ffffffffffffffffffffffffffffffffffffffff1673ffffffffffffffffffffffffffffffffffffffff1681526020019081526020016000206000828254039250508190555081600360008573ffffffffffffffffffffffffffffffffffffffff1673ffffffffffffffffffffffffffffffffffffffff16815260200190815260200160002060008282540192505081905550600190505b92915050565b60008060008681526020019081526020016000209050838160080181905550828160090181600019169055508181600a0181600019169055505050505050565b60016020528060005260406000206000915054906101000a900473ffffffffffffffffffffffffffffffffffffffff1681565b6000600360008373ffffffffffffffffffffffffffffffffffffffff1673ffffffffffffffffffffffffffffffffffffffff168152602001908152602001600020549050919050565b606080600080600260008673ffffffffffffffffffffffffffffffffffffffff1673ffffffffffffffffffffffffffffffffffffffff168152602001908152602001600020546040519080825280602002602001820160405280156107f55781602001602082028038833980820191505090505b50925060009150600190505b6063811115156108a5578473ffffffffffffffffffffffffffffffffffffffff166001600083815260200190815260200160002060009054906101000a900473ffffffffffffffffffffffffffffffffffffffff1673ffffffffffffffffffffffffffffffffffffffff1614156108985780838381518110151561088157fe5b906020019060200201818152505081806001019250505b8080600101915050610801565b829350505050919050565b336001600083815260200190815260200160002060006101000a81548173ffffffffffffffffffffffffffffffffffffffff021916908373ffffffffffffffffffffffffffffffffffffffff1602179055506109556001600260003373ffffffffffffffffffffffffffffffffffffffff1673ffffffffffffffffffffffffffffffffffffffff16815260200190815260200160002054610a9290919063ffffffff16565b600260003373ffffffffffffffffffffffffffffffffffffffff1673ffffffffffffffffffffffffffffffffffffffff1681526020019081526020016000208190555050565b6000806000806000806000878152602001908152602001600020905080600401548160050154826006015483600701549450945094509450509193509193565b6000806000806000808681526020019081526020016000209050806001015481600201548260030154935093509350509193909250565b6000806000868152602001908152602001600020905084816000018190555083816001018190555082816002018160001916905550818160030181600019169055505050505050565b60008060008060008086815260200190815260200160002090508060080154816009015482600a0154935093509350509193909250565b6000808284019050838110151515610aa657fe5b80915050929150505600a165627a7a72305820213d44aea2fd24bdb440e5f9d10c065f9535b7f43969a611179e44ee60a8517f0029",
  "source": "pragma solidity ^0.4.19;\n\nimport \"./SafeMath.sol\";\nimport \"./EstateSupplyChain.sol\";\n\n/**\n * The buyEstate contract does this and that...\n */\n //房产购买合约，包括付款和所有权转移，统计顾客房产数量并显示相应ID,收款地址可硬编码为合约地址\ncontract buyEstate is EstateSupplyChain {\n\tusing SafeMath for uint;\n\n\t//address[] public customers;\n\t//uint[] public id;\n\tmapping (uint => address) public estateToOwner;\n    mapping (address => uint) ownerEstateCount;\n    mapping (address => uint) balances;\n\n    event Transfer(address indexed _from, address indexed _to, uint256 _value);\n\n    modifier isSell (uint estate_id){\n\n\t\trequire (estateToOwner[estate_id] != address(0));\n\t\t_;\n\t\t\n\t}\n\tmodifier exitEstate(uint estate_id) { \n\n        EstateSupply storage estate_real = estatesupply1[estate_id];\n\t\trequire (estate_real.estate_id != 0x0); \n\t\t_; \n\t}\n\n    function getbalance (address addr) returns(uint) {\n\t\treturn balances[addr];\t\t\n\t}\n\n\tfunction transferOwnership (uint estate_id) public {\n\t\t//require(estate_id>=0 && estate_id<=8);\n\t\t//customers[estate_id] = msg.sender;\n\t\testateToOwner[estate_id] = msg.sender;\n\t\townerEstateCount[msg.sender] = ownerEstateCount[msg.sender].add(1); \t\n\t\t//return estate_id;\t\n\t}\n\n\tfunction showCustomerEstateId (address customer_address) constant returns(uint[]) {\n\t\tuint[] memory result = new uint[](ownerEstateCount[customer_address]);\n\t\tuint counter = 0;\n\t\tfor(uint i = 1; i <= 99; i++){\n\t\t\tif(estateToOwner[i] == customer_address){\n\t\t\t\tresult[counter] = i;\n\t\t\t\tcounter++;\n\t\t\t} \n\t\t}\n\t\treturn result;\n\n\t} \n\n\tfunction showCustomerEstatecount(address customer_address) constant returns(uint){\n\t\treturn ownerEstateCount[customer_address];\n\t}\n\n\t/* function getCustomers() public view returns(address[]) {\t\n\t\treturn customers;\n\t} */\n\t\n\t/* function getEstateDetail (uint estate_id) constant returns(bytes32, bytes32, bytes32) {\n\t\treturns( estatesupply[estate_id].estate_name,\n\t\t\t\t estatesupply[estate_id].estate_location,\n\t\t\t\t estatesupply[estate_id].customer_dealprice\n\t\t\t\t );\n\t} */\t\t\n\t//exitEstate(estate_id) isSell(estate_id)\t\n\tfunction payMoney (address receiver,uint price)  returns(bool) {\n         \n         if (balances[msg.sender] < price)\n         return false;\n         balances[msg.sender] -= price;\n         balances[receiver] += price;\n         //Transfer(msg.sender,receiver,price);\n         return true;     \n\t\t\n\t}\n\n\t\n}\n\n",
  "sourcePath": "/home/zl/Node-Login/contracts/buyEstate.sol",
  "compiler": {
    "name": "solc",
    "version": "0.4.24+commit.e67f0147.Emscripten.clang"
  },
  "schemaVersion": "2.0.0",
  "updatedAt": "2018-08-28T11:54:11.075Z"
}