{
  "contractName": "EstateSupplyChain",
  "abi": [
    {
      "constant": false,
      "inputs": [
        {
          "name": "estate_id",
          "type": "uint256"
        },
        {
          "name": "raw_material_id",
          "type": "uint256"
        },
        {
          "name": "suppiler_name",
          "type": "bytes32"
        },
        {
          "name": "raw_material_name",
          "type": "bytes32"
        }
      ],
      "name": "setSupplier",
      "outputs": [],
      "payable": false,
      "stateMutability": "nonpayable",
      "type": "function"
    },
    {
      "constant": true,
      "inputs": [
        {
          "name": "estate_id",
          "type": "uint256"
        }
      ],
      "name": "getSupplier",
      "outputs": [
        {
          "name": "",
          "type": "uint256"
        },
        {
          "name": "",
          "type": "bytes32"
        },
        {
          "name": "",
          "type": "bytes32"
        }
      ],
      "payable": false,
      "stateMutability": "view",
      "type": "function"
    },
    {
      "constant": false,
      "inputs": [
        {
          "name": "estate_id",
          "type": "uint256"
        },
        {
          "name": "seller_name",
          "type": "bytes32"
        },
        {
          "name": "estate_name",
          "type": "bytes32"
        },
        {
          "name": "estate_location",
          "type": "bytes32"
        },
        {
          "name": "estate_sellprice",
          "type": "uint256"
        }
      ],
      "name": "setSeller",
      "outputs": [],
      "payable": false,
      "stateMutability": "nonpayable",
      "type": "function"
    },
    {
      "constant": true,
      "inputs": [
        {
          "name": "estate_id",
          "type": "uint256"
        }
      ],
      "name": "getSeller",
      "outputs": [
        {
          "name": "",
          "type": "bytes32"
        },
        {
          "name": "",
          "type": "bytes32"
        },
        {
          "name": "",
          "type": "bytes32"
        },
        {
          "name": "",
          "type": "uint256"
        }
      ],
      "payable": false,
      "stateMutability": "view",
      "type": "function"
    },
    {
      "constant": false,
      "inputs": [
        {
          "name": "estate_id",
          "type": "uint256"
        },
        {
          "name": "customer_iphone",
          "type": "uint256"
        },
        {
          "name": "customer_name",
          "type": "bytes32"
        },
        {
          "name": "customer_address",
          "type": "bytes32"
        }
      ],
      "name": "setCustomer",
      "outputs": [],
      "payable": false,
      "stateMutability": "nonpayable",
      "type": "function"
    },
    {
      "constant": true,
      "inputs": [
        {
          "name": "estate_id",
          "type": "uint256"
        }
      ],
      "name": "getCustomer",
      "outputs": [
        {
          "name": "",
          "type": "uint256"
        },
        {
          "name": "",
          "type": "bytes32"
        },
        {
          "name": "",
          "type": "bytes32"
        }
      ],
      "payable": false,
      "stateMutability": "view",
      "type": "function"
    }
  ],
  "bytecode": "0x608060405234801561001057600080fd5b50610461806100206000396000f300608060405260043610610078576000357c0100000000000000000000000000000000000000000000000000000000900463ffffffff1680632fa18ff81461007d5780634e9ee48c146100de578063d6a9de5114610131578063e0620e1d1461019f578063e638ea01146101fe578063eb876f2714610251575b600080fd5b34801561008957600080fd5b506100dc60048036038101908080359060200190929190803560001916906020019092919080356000191690602001909291908035600019169060200190929190803590602001909291905050506102b0565b005b3480156100ea57600080fd5b5061012f6004803603810190808035906020019092919080359060200190929190803560001916906020019092919080356000191690602001909291905050506102fe565b005b34801561013d57600080fd5b5061015c6004803603810190808035906020019092919050505061033e565b6040518085600019166000191681526020018460001916600019168152602001836000191660001916815260200182815260200194505050505060405180910390f35b3480156101ab57600080fd5b506101ca6004803603810190808035906020019092919050505061037e565b6040518084815260200183600019166000191681526020018260001916600019168152602001935050505060405180910390f35b34801561020a57600080fd5b5061024f6004803603810190808035906020019092919080359060200190929190803560001916906020019092919080356000191690602001909291905050506103b5565b005b34801561025d57600080fd5b5061027c600480360381019080803590602001909291905050506103fe565b6040518084815260200183600019166000191681526020018260001916600019168152602001935050505060405180910390f35b60008060008781526020019081526020016000209050848160040181600019169055508381600501816000191690555082816006018160001916905550818160070181905550505050505050565b60008060008681526020019081526020016000209050838160080181905550828160090181600019169055508181600a0181600019169055505050505050565b6000806000806000806000878152602001908152602001600020905080600401548160050154826006015483600701549450945094509450509193509193565b6000806000806000808681526020019081526020016000209050806001015481600201548260030154935093509350509193909250565b6000806000868152602001908152602001600020905084816000018190555083816001018190555082816002018160001916905550818160030181600019169055505050505050565b60008060008060008086815260200190815260200160002090508060080154816009015482600a01549350935093505091939092505600a165627a7a7230582097edbf7de37eb5eb6ce8ebf752a4e5ec743cc9ed75136ded19f8cbcf78a464b60029",
  "source": "pragma solidity ^0.4.19;\n\n/**\n * The EStateSupplyChain contract does this and that...\n */\n //上链信息存储查询合约\ncontract EstateSupplyChain {\n /* enum Actor { Supplier, Seller, Customer }\n\t\n\tstruct User {\n\t\tuint Id;\n\t\tbytes32 name;\n\t\tActor actor;\t\n\t} */\n\t\n\tstruct EstateSupply {\n\t\tuint estate_id;\n        \n\t\tuint raw_material_id;\n\t\tbytes32 suppiler_name;\n        bytes32 raw_material_name;\n        //bytes32 raw_material_location;\n        //bytes32 raw_material_quantity;\n        //bytes32 raw_material_price;\n        //bytes32 raw_material_otherdate;\n        \n        //bytes estate_batch;\n        bytes32 seller_name;\n        bytes32 estate_name;\n        bytes32 estate_location;\n        uint estate_sellprice;\n        //bytes32 estate_quantity;\n        //bytes32 estate_selltime;\n        //bytes32 estate_otherdate;\n        //bool isdeal;\n\n        uint customer_iphone;\n        bytes32 customer_name;\n        bytes32 customer_address;\n        //bytes32 customer_dealprice;\n        //bytes32 customer_otherdate;\n\t\t\n\t}\n\n\t//EstateSupply[] public estatesupply;\n\tmapping (uint => EstateSupply) estatesupply1;\n\t/* mapping (address => User) supplierMap;\n\tmapping (address => User) sellerMap;\n\tmapping (address => User) customerMap; */\n\t\n    //event createSupplier(uint estate_id);\n    //event createSeller(uint estate_id);\n    //event createCustomer(uint estate_id);\n   /*  function EstateSupplyChain () {\n    \towner = msg.sender;\n    }\n    function createUser (uint Id, bytes32 name,Actor actor) returns(bool, string) {\n    \tUser user;\n    \tif(actor == Actor.Supplier){\n    \t\tuser = supplierMap[msg.sender];\n    \t}else if(actor == Actor.Seller){\n    \t\tuser = sellerMap[msg.sender];\n    \t}else if(actor == Actor.Customer){\n    \t\tuser = customerMap[msg.sender];\n    \t}else{\n    \t\treturn (false,\"the actor is not exit\");\n    \t}\n\n    \tif(user.Id == 0x0){\n    \t\treturn(false,\"this Id is exit\");\n    \t}\n    \tuser.Id = Id;\n    \tuser.name = name;\n    \tuser.actor = actor;\n    \treturn(true,\"The actor create successfuly!\");\n    \t\n    }  */\n     \n\tfunction setSupplier (uint estate_id,uint raw_material_id,bytes32 suppiler_name,\n\t\tbytes32 raw_material_name) {\n\t\t/* User user = supplierMap[msg.sender];\n\t\trequire(user.actor == Actor.Supplier); */\n\t\tEstateSupply storage estate_real = estatesupply1[estate_id];\n\n\t\testate_real.estate_id = estate_id;\n\t\testate_real.raw_material_id = raw_material_id;\n\t\testate_real.suppiler_name = suppiler_name;\n\t\testate_real.raw_material_name = raw_material_name;\n\t\t\n\t\t/* estatesupply[estate_id].estate_id = estate_id;\n\t\testatesupply[estate_id].raw_material_id = raw_material_id;\n\t\testatesupply[estate_id].suppiler_name = suppiler_name;\n\t\testatesupply[estate_id].raw_material_name = raw_material_name; */\n\t\t//estatesupply[estate_id].raw_material_location = raw_material_location;\n\t\t//estatesupply[estate_id].raw_material_quantity = raw_material_quantity;\n\t\t//estatesupply[estate_id].raw_material_price = raw_material_price;\n\t\t//estatesupply[estate_id].raw_material_otherdate = raw_material_otherdate;\n\t\t//createSupplier(estate_id);\n\t\t\n\t}\n\n\tfunction getSupplier (uint estate_id) constant returns(uint, bytes32, bytes32) {\n\t\t\n\t\tEstateSupply storage estate_real = estatesupply1[estate_id];\n\n\t\treturn (estate_real.raw_material_id,\n\t\t        estate_real.suppiler_name,\n\t\t        estate_real.raw_material_name\n\t\t        //estatesupply[estate_id].raw_material_location,\n\t\t        //estatesupply[estate_id].raw_material_quantity,\n\t\t        //estatesupply[estate_id].raw_material_price\n\t\t       // estatesupply[estate_id].raw_material_otherdate\n\t\t\t);\n\t\t\n\t}\n\n\tfunction setSeller (uint estate_id,bytes32 seller_name,bytes32 estate_name,bytes32 estate_location,\n\t\tuint estate_sellprice) {\n\t\t/* User user = sellerMap[msg.sender];\n\t\trequire(user.actor == Actor.Seller); */\n\t\tEstateSupply storage estate_real = estatesupply1[estate_id];\n\n\t\testate_real.seller_name = seller_name;\n\t\testate_real.estate_name = estate_name;\n\t\testate_real.estate_location = estate_location;\n\t\t//estatesupply[estate_id].estate_quantity = estate_quantity;\n\t\testate_real.estate_sellprice = estate_sellprice;\n\t\t//estatesupply[estate_id].estate_selltime = estate_selltime;\n\t\t//estatesupply[estate_id].estate_otherdate = estate_otherdate;\n\t    //estatesupply[estate_id].isdeal = isdeal;\n        //createSeller(estate_id);\n\t\t\n\t}\n\n\tfunction getSeller (uint estate_id) constant returns(bytes32, bytes32, bytes32, uint) {\n\t\t\n\t\tEstateSupply storage estate_real = estatesupply1[estate_id];\n\n\t\treturn(estate_real.seller_name,\n\t\t       estate_real.estate_name,\n\t\t       estate_real.estate_location,\n\t\t       //estatesupply[estate_id].estate_quantity,\n\t\t       estate_real.estate_sellprice\n\t\t       //estatesupply[estate_id].estate_selltime,\n\t\t       //estatesupply[estate_id].estate_otherdate,\n\t\t       //estatesupply[estate_id].isdeal\n\t\t\t);\n\t}\n\n\tfunction setCustomer (uint estate_id,uint customer_iphone,bytes32 customer_name,bytes32 customer_address) {\n\t\t/* User user = customerMap[msg.sender];\n\t\trequire(user.actor == Actor.Customer); */\n\t\t//estatesupply[estate_id].estate_id = estate_id;\n\t\tEstateSupply storage estate_real = estatesupply1[estate_id];\n\n\t\testate_real.customer_iphone = customer_iphone;\n\t\testate_real.customer_name = customer_name;\n\t\testate_real.customer_address = customer_address;\n\t\t//estatesupply[estate_id].customer_dealprice = customer_dealprice;\n\t\t//estatesupply[estate_id].customer_otherdate = customer_otherdate;\n\t\t//createCustomer(estate_id);\n\t\t\t\n\t}\n\n\tfunction getCustomer (uint estate_id) constant returns(uint, bytes32, bytes32) {\n\t\t\n\t\tEstateSupply storage estate_real = estatesupply1[estate_id];\n\t\treturn(estate_real.customer_iphone,\n\t\t       estate_real.customer_name,\n\t\t       estate_real.customer_address\n\t\t       //estatesupply[estate_id].customer_dealprice\n\t\t       //estatesupply[estate_id].customer_otherdate\n\t\t\t);\n\t}\t\n}\n\n\n\n",
  "sourcePath": "/home/zl/Node-Login/contracts/EstateSupplyChain.sol",
  "compiler": {
    "name": "solc",
    "version": "0.4.24+commit.e67f0147.Emscripten.clang"
  },
  "schemaVersion": "2.0.0",
  "updatedAt": "2018-08-28T11:54:11.083Z"
}